S012000030352D7365676D656E742E737265638D
S113000045C0000058C0000056C0000054C00000A5
S113001052C0000050C000004EC000004CC00000A0
S11300204AC0000048C0000046C0000044C00000B0
S113003042C0000040C000003EC0000067C0000095
S11300403AC0000038C0000036C0000034C00000D0
S113005032C0000030C000002EC000002CC00000E0
S11300602AC0000028C0000026C0000024C00000F0
S113007022C0000020C000001EC000001CC0000000
S11300801AC0000018C0000016C0000011241FBED2
S1130090CFEFD0E4DEBFCDBF11E0A0E0B1E0ECEFE4
S11300A0F1E000E00BBF02C007900D92A030B10751
S11300B0D9F727D0A1C0A4CFFC01408121E030E0D2
S11300C002C0220F331F6A95E2F7242B2083089580
S11300D0FC01908121E030E002C0220F331F6A95B9
S11300E0E2F72095292320830895FC01408121E033
S11300F030E002C0220F331F6A95E2F7242B2083DD
S113010008950ED060E18DE018D0FFCF1F920F92BA
S11301100FB60F9211240F900FBE0F901F901895D9
S113012064E08AE290E0C8DF67E08AE290E0C4DF3E
S113013060E084E290E0C0CF08951F93CF93DF93F3
S1130140182FD62F64E08BE290E0C2DF67E08BE2E9
S113015090E0BEDF60E085E290E0BADF85E08A955A
S1130160F1F70000C8E010FF05C060E08BE290E00A
S1130170BCDF04C060E08BE290E0AADF85E08A95F2
S1130180F1F7000067E08BE290E0AFDF85E08A954D
S1130190F1F7000067E08BE290E09ADF1695C1501A
S11301A011F7C8E0D0FF05C060E08BE290E09DDF6E
S11301B004C060E08BE290E08BDF85E08A95F1F784
S11301C0000067E08BE290E090DF85E08A95F1F72C
S11301D0000067E08BE290E07BDFD695C15011F719
S11301E064E08BE290E081DF85E08A95F1F700001E
S10F01F0DF91CF911F910895F894FFCF88
S9030000FC
