:1000000045C0000060C000005EC000005CC0000091
:100010005AC0000058C0000056C0000054C0000084
:1000200052C0000050C000004EC000004CC0000094
:100030004AC0000048C0000046C000007FC0000069
:1000400042C0000040C00000B0C000003CC0000042
:100050003AC0000038C0000036C0000034C00000C4
:1000600032C0000030C000002EC000002CC00000D4
:100070002AC0000028C0000026C0000024C00000E4
:1000800022C0000020C000001EC0000011241FBEBE
:10009000CFEFD0E4DEBFCDBF11E0A0E0B1E0EAE0F9
:1000A000F3E000E00BBF02C007900D92AE30B10745
:1000B000D9F721E0AEE0B1E001C01D92A231B20754
:1000C000E1F727D020C19CCFFC01408121E030E046
:1000D00002C0220F331F6A95E2F7242B2083089574
:1000E000FC01908121E030E002C0220F331F6A95AD
:1000F000E2F72095292320830895FC01408121E027
:1001000030E002C0220F331F6A95E2F7242B2083D0
:10011000089585D060E083E08FD0789460E089E036
:100120008BD061E085E088D062E08BE085D062E032
:1001300089E082D063E085E07FD0F0CF1F920F92FC
:100140000FB60F9211242F938F939F9380911001DC
:100150008C3308F5809110018F5F8093100190918E
:1001600010018DEC989F912D11249695969596955A
:100170009093110120911001289F812D11248695C3
:1001800086958695880F982F990F990F890F281BB0
:1001900020930F0102C0109210019F918F912F9117
:1001A0000F900FBE0F901F9018951F920F920FB6D1
:1001B0000F9211240BB60F922F933F934F935F939F
:1001C0006F937F938F939F93AF93BF93EF93FF931F
:1001D00080910E0181110AC08091110161E02CD043
:1001E00080910E018F5F80930E0106C080910F01F8
:1001F00060E022D010920E01FF91EF91BF91AF917C
:100200009F918F917F916F915F914F913F912F912E
:100210000F900BBE0F900FBE0F901F90189564E0CB
:100220008AE290E051DF67E08AE290E04DDF60E033
:1002300084E290E049CF08951F93CF93DF93E82F96
:10024000F0E0EC5FFE4F1081E62FF0E0E050FF4F52
:10025000D08164E08BE290E043DF67E08BE290E0E6
:100260003FDF60E085E290E03BDF85E08A95F1F7D3
:100270000000C8E010FF05C060E085E290E03DDFCF
:1002800004C060E085E290E02BDF85E08A95F1F71D
:10029000000067E08BE290E030DF85E08A95F1F7BF
:1002A000000067E08BE290E01BDF1695C15011F76C
:1002B000C8E0D0FF05C060E085E290E01EDF04C02A
:1002C00060E085E290E00CDF85E08A95F1F70000C0
:1002D00067E08BE290E011DF85E08A95F1F700009E
:1002E00067E08BE290E0FCDED695C15011F764E048
:1002F0008BE290E002DF85E08A95F1F70000DF9164
:0A030000CF911F910895F894FFCFEC
:0E030A0010204080039F250D9949491F0109CD
:00000001FF
