:100000000C9434000C943E000C943E000C943E0082
:100010000C943E000C943E000C943E000C943E0068
:100020000C943E000C943E000C943E000C943E0058
:100030000C943E000C943E000C943E000C943E0048
:100040000C943E000C943E000C943E000C943E0038
:100050000C943E000C943E000C943E000C943E0028
:100060000C943E000C943E0011241FBECFEFD8E04C
:10007000DEBFCDBF0E9440000C9459000C940000DC
:10008000259A2D983D9A459856985E9A90E24E99F9
:1000900009C02FEF39E688E1215030408040E1F778
:1000A00000C0000085B1892785B988B1892788B942
:0600B000EECFF894FFCF33
:00000001FF
